:100000000C942A000C9447000C9447000C94470071
:100010000C9447000C9447000C9447000C94470044
:100020000C9447000C9447000C9447000C94AB04CC
:100030000C9447000C9447000C9447000C94470024
:100040000C9447000C9447000C9447000C94470014
:100050000C94470011241FBECFE5D4E0DEBFCDBF16
:1000600010E0A0E6B0E0E2E3FAE002C005900D92F5
:10007000A43CB107D9F710E0A4ECB0E001C01D9298
:10008000A83CB107E1F70E94E2030C9417050C9419
:1000900000004423D1F58130A1F0813030F082306E
:1000A000E1F0833009F067C024C02AB381E090E01A
:1000B00002C0880F991F6A95E2F7809582238ABB58
:1000C000089527B381E090E002C0880F991F6A95D8
:1000D000E2F78095822387BB089524B381E090E006
:1000E00002C0880F991F6A95E2F78095822384BB2E
:1000F000089521B381E090E002C0880F991F6A95AE
:10010000E2F78095822381BB08954130A1F58130CB
:1001100091F0813028F08230C9F0833061F521C040
:100120002AB381E090E002C0880F991F6A95E2F738
:10013000282B2ABB089527B381E090E002C0880FE6
:10014000991F6A95E2F7282B27BB089524B381E015
:1001500090E002C0880F991F6A95E2F7282B24BB14
:10016000089521B381E090E002C0880F991F6A953D
:10017000E2F7282B21BB08954423D1F58130A1F06B
:10018000813030F08230E1F0833009F067C024C064
:100190002BB381E090E002C0880F991F6A95E2F7C7
:1001A000809582238BBB089528B381E090E002C044
:1001B000880F991F6A95E2F78095822388BB08957E
:1001C00025B381E090E002C0880F991F6A95E2F79D
:1001D0008095822385BB089522B381E090E002C020
:1001E000880F991F6A95E2F78095822382BB089554
:1001F0004130A1F5813091F0813028F08230C9F092
:10020000833061F521C02BB381E090E002C0880FFC
:10021000991F6A95E2F7282B2BBB089528B381E03C
:1002200090E002C0880F991F6A95E2F7282B28BB3F
:10023000089525B381E090E002C0880F991F6A9568
:10024000E2F7282B25BB089522B381E090E002C09D
:10025000880F991F6A95E2F7282B22BB0895FA01AF
:10026000813091F0813028F08230C9F0833071F50F
:1002700022C089B390E002C0959587956A95E2F710
:10028000817089BB89B315C086B390E002C0959593
:1002900087956A95E2F7817086BB86B30AC083B3FF
:1002A00090E002C0959587956A95E2F7817083BBCF
:1002B00083B38083089580B390E002C095958795BD
:1002C0006A95E2F7817080BB80B3808308956130C6
:1002D000A9F4813051F0813028F0823049F0833028
:1002E000F9F409C08FEF8ABB08958FEF87BB08959B
:1002F0008FEF84BB08958FEF81BB0895662381F44F
:10030000813049F0813028F0823039F0833041F477
:1003100006C01ABA089517BA089514BA089511BA02
:100320000895813049F0813028F0823039F08330EF
:1003300041F406C06BBB089568BB089565BB089582
:1003400062BB0895FB01813049F0813028F0823092
:1003500039F0833051F407C089B303C086B301C0BC
:1003600083B38083089580B3808308958FB78068B6
:100370008FBF08958FB78F778FBF0895B0EFAFEF1E
:1003800048E853E120E137E2FFEEEFED7FEB6FE766
:10039000B4BBA5BB85B38F7085BB000083B38F70E2
:1003A0008F30C1F7CA010197F1F783B38F708F3097
:1003B000C9F3C9010197F1F783B38F708F3091F3BF
:1003C000F5BB000083B38F708F3029F08093C60097
:1003D0001092C70020C0E5BB000083B38F708F3040
:1003E00021F08093C60081E014C075BB000083B388
:1003F0008F708F3021F08093C60082E00AC065BB09
:10040000000083B38F708F3009F4C2CF8093C60091
:1004100083E08093C7008091C6008E3051F4E09154
:10042000C700F0E0EE0FFF1FEE0FFF1FED54FF4F70
:1004300018C08D3059F4E091C700F0E0EE0FFF1FB7
:10044000EE0FFF1FED54FF4F81810895E091C7002B
:100450008B3049F4F0E0EE0FFF1FEE0FFF1FEB545F
:10046000FF4F80810895F0E0EE0FFF1FEE0FFF1F9A
:10047000ED54FF4F838108951F93182F80E067E0AC
:1004800041E00E94BC0080E066E040E00E94BC00C9
:1004900081E0612F0E94910180E065E041E00E94CF
:1004A000BC0084EF91E00197F1F780E065E040E067
:1004B0000E94BC001F9108951F93182F80E067E0F1
:1004C00040E00E94BC0080E066E040E00E94BC008A
:1004D00081E0612F0E94910180E065E041E00E948F
:1004E000BC0084EF91E00197F1F780E065E040E027
:1004F0000E94BC001F910895882319F0813039F4BF
:1005000003C0862F805804C0862F805401C080E825
:100510000E945C0208951F93CF93DF93EC0110E0DB
:100520000EC0103120F40E943C021F5F07C080EC17
:100530000E945C0288810E943C0210E02196888122
:10054000882379F7DF91CF911F9108950F931F931F
:10055000DF93CF93CDB7DEB72A970FB6F894DEBFFF
:100560000FBECDBF8E010F5F1F4FB8014AE050E0B4
:100570000E94D204C8010E948B022A960FB6F894FA
:10058000DEBF0FBECDBFCF91DF911F910F910895B8
:100590000F931F938A010E947C02C8010E948B0264
:1005A0001F910F91089581E061E00E94670180E052
:1005B00067E041E00E94490080E066E041E00E947F
:1005C000490080E065E041E00E94490080E197E257
:1005D0000197F1F788E30E945C028CE00E945C02C4
:1005E00081E00E945C02089586E880BD83E389B9BA
:1005F000539A549A0895982F8BB18295869581705D
:100600008BB98BB18823C1F39CB908958BB1881F36
:100610008827881F8BB98BB18823C1F38CB10895CB
:10062000FC018081813371F48181823359F48281AC
:10063000833341F420E08381843309F021E081E0B9
:10064000282701C020E0822F08950E944E0480E2F6
:100650009EE40E94670483E065E041E00E94490057
:1006600088EE93E00E946A0480E197E229E130E09D
:10067000F9013197F1F70197D9F7089581E00E94C8
:100680005C0280E690E00E948B0283E062E041E041
:100690000E94490083E063E041E00E94490082B388
:1006A00094E0892782BB88EA91E6FC013197F1F753
:1006B000939A0197F1F7939884ED90E30197F1F7FE
:1006C000089581E00E945C0286E690E00E948B0221
:1006D000089581E00E945C028EE790E00E948B0208
:1006E00081E060E00E947C028FE890E00E948B0233
:1006F0000895CF93DF93EC0181E00E945C02CE016C
:100700000E941003882369F48EE790E00E948B0218
:1007100081E060E00E947C028FE890E00E948B0202
:100720000FC0CE010E941003813051F486E690E0A4
:100730000E948B020E94250381E090E00E94FB0250
:10074000DF91CF910895CF92DF92EF92FF920F93B6
:100750001F93DF93CF9300D000D0CDB7DEB781E0F9
:100760000E945C028AE990E00E948B0281E06AE0CC
:100770000E947C028E010F5F1F4F98E8C92E93E103
:10078000D92E85E0E82EF12CEC0EFD1E0E94BE0154
:10079000F80181938F010E943C02C6010197F1F795
:1007A0000E151F0599F7CE0101960F900F900F902F
:1007B0000F90CF91DF911F910F91FF90EF90DF90FD
:1007C000CF900895CF92DF92EF92FF921F93CF9335
:1007D000DF930E94D3020E94F40211E029E1C22EAD
:1007E000D12C01C010E081E00E945C02812F815079
:1007F000823008F046C0EE24FF240E94A303EC01DF
:100800000E941003813081F40E9461030E9425033D
:1008100081E090E00E94FB0280E395E7F6013197CA
:10082000F1F70197D9F7DECFCE010E94100388239C
:10083000F1F40E94690380E29EE4F6013197F1F73A
:100840000197D9F71330A1F081E00E945C028BEA96
:1008500090E00E948B02812F90E001960E94A602F8
:1008600080E197E2F6013197F1F70197D9F71F5F21
:100870000894E11CF11C83E0E816F10409F0BDCFF7
:10088000B2CF133018F00E943E03ADCF112309F010
:10089000AACF81E090E00E94FB02A5CF8FB58068CF
:1008A0008FBD8FB58F7B8FBD8FB58E7F8FBD8FB581
:1008B00082608FBD8EB588608EBD8EB580618EBD25
:1008C0008EB5887F8EBD8EB5826F8EBD089597BD23
:1008D00086BD08959BBD8ABD0895823051F0833056
:1008E00059F0882379F483B78F7B83BF83B7877FE1
:1008F00008C083B78F7B02C083B7806483BF83B790
:10090000886083BF83B7887F83BF83B7862B83BF0D
:10091000089589B7816089BF089589B78E7F89BF9F
:1009200008958CBF0895882319F0813071F407C0B1
:1009300083B7806283BF83B7806183BF089583B725
:10094000806283BF83B78F7E83BF08959093C50075
:100950008093C40008951F920F920FB60F92112436
:100960002F933F934F935F936F937F938F939F93B7
:10097000AF93BF93EF93FF93E091C400F091C50054
:100980000995FF91EF91BF91AF919F918F917F91C9
:100990006F915F914F913F912F910F900FBE0F90EC
:1009A0001F901895FB019F01E8944230C4F0453236
:1009B000B4F44A3029F497FB1EF4909581959F4F2B
:1009C000642F77270E940305805D8A330CF0895DD0
:1009D0008193CB010097A1F716F45DE25193108249
:1009E000C9010C94F304DC01FC01672F719177239A
:1009F000E1F7329704C07C916D9370836291AE17DA
:100A0000BF07C8F30895AA1BBB1B51E107C0AA1F6B
:100A1000BB1FA617B70710F0A61BB70B881F991F9F
:100A20005A95A9F780959095BC01CD010895F89449
:020A3000FFCFF6
:100A3200416C61726D0057656C636F6D6520417426
:100A420020486F6D6520446561722E2E2100506131
:100A52007373776F72642057726F6E672021005430
:100A6200727920416761696E2100456E746572205A
:100A720050617373776F72643A2000547279204E1A
:100A82006F2E0037343120383532303936333D2F2E
:040A92002A2D2B00DE
:00000001FF
