:100000000C942A000C9447000C9447000C94470071
:100010000C9447000C9447000C9447000C94470044
:100020000C9447000C9447000C9447000C94640B0C
:100030000C9447000C9447000C9447000C94470024
:100040000C94DB060C9447000C9447000C9447007A
:100050000C94470011241FBECFE5D4E0DEBFCDBF16
:1000600011E0A0E6B0E0E2E1F8E102C005900D92F7
:10007000A638B107D9F711E0A6E8B1E001C01D929A
:10008000AA38B107E1F70E94DF0A0C94070C0C9420
:100090000000EF92FF920F931F937B018C0120E0F1
:1000A00030E040E05FE40E94C50388238CF0C80183
:1000B000B70120E030E040E05FE40E94C1010E940F
:1000C000F5039B01AC01205030404040504806C031
:1000D000C801B7010E94F5039B01AC01B901CA0137
:1000E0001F910F91FF90EF900895A0E0B0E0EBE733
:1000F000F0E00C948B0BDC012B01FA019C91923007
:1001000008F439C1EB018881823008F433C194309E
:1001100069F4843009F02FC111969C91119789815F
:10012000981709F428C1ADE7B0E025C1843009F47F
:1001300021C18230A9F4923009F01DC19A01AD01AC
:1001400088E0EA010990AE01E90109929E0181501F
:10015000C1F7E201898111969C918923818308C1AD
:10016000923009F407C112962D903C901397EB0141
:100170008A819B811496AD90BD90CD90DC901797AD
:10018000EC80FD800E811F819101281B390BB90184
:1001900037FF04C066277727621B730B6032710537
:1001A0000CF061C0121613066CF537014801062EDB
:1001B00004C096948794779467940A94D2F721E0C8
:1001C00030E040E050E004C0220F331F441F551FB1
:1001D0006A95D2F721503040404050402E213F21B7
:1001E00040235123211531054105510521F021E01E
:1001F00030E040E050E079018A01E628F72808293C
:1002000019293CC0232BD1F1260E371E350146019A
:10021000062E04C096948794779467940A94D2F734
:1002200021E030E040E050E004C0220F331F441FC3
:10023000551F6A95D2F721503040404050402A2146
:100240003B214C215D21211531054105510521F04E
:1002500021E030E040E050E059016A01A628B728CB
:10026000C828D9280BC0821593052CF01C01AA249C
:10027000BB24650103C0EE24FF24870111969C91E5
:10028000D20111968C91981709F445C0992339F041
:10029000A80197012A193B094C095D0906C0A6016E
:1002A00095012E193F09400B510B57FD08C01182D3
:1002B0003382228224833583468357831DC081E0A5
:1002C00081833382228288279927DC01821B930B4A
:1002D000A40BB50B84839583A683B7830DC0220F2F
:1002E000331F441F551F24833583468357838281E0
:1002F000938101979383828324813581468157813D
:10030000DA01C9010197A109B1098F5F9F4FAF4F72
:10031000BF4328F30BC0918333822282EA0CFB1C7B
:100320000C1D1D1DE482F5820683178383E0808304
:10033000248135814681578157FF1AC0C901AA27F8
:1003400097FDA095BA2F81709070A070B0705695EF
:10035000479537952795822B932BA42BB52B848318
:100360009583A683B7838281938101969383828349
:10037000DF0101C0D201CD01CDB7DEB7E2E10C94BF
:10038000A70BA0E2B0E0E7ECF1E00C94970B6983D7
:100390007A838B839C832D833E834F835887E9E048
:1003A000EE2EF12CEC0EFD1ECE010196B7010E943F
:1003B000E6058E010F5E1F4FCE010596B8010E9423
:1003C000E6058A8991E089278A8BC701B801AE01C9
:1003D000475E5F4F0E9475000E941105A096E6E0FF
:1003E0000C94B30BA0E2B0E0E8EFF1E00C94970BB3
:1003F00069837A838B839C832D833E834F835887C5
:10040000F9E0EF2EF12CEC0EFD1ECE010196B701A6
:100410000E94E6058E010F5E1F4FCE010596B801C2
:100420000E94E605C701B801AE01475E5F4F0E941A
:1004300075000E941105A096E6E00C94B30BA0E2B3
:10044000B0E0E5E2F2E00C948B0B69837A838B8356
:100450009C832D833E834F835887CE010196BE0136
:10046000675F7F4F0E94E605CE010596BE016F5E75
:100470007F4F0E94E6059985923088F08989823005
:10048000C8F0943019F4823051F404C0843029F457
:10049000923081F48DE790E0C6C0923049F420E0BC
:1004A0009A858A89981321E02A87CE010996BBC0D4
:1004B000823049F420E09A858A89981321E02A8BBA
:1004C000CE014196B0C02D843E844F8458886D88FB
:1004D0007E888F88988CEE24FF248701AA24BB2471
:1004E000650140E050E060E070E0E0E0F0E0C10174
:1004F00081709070892BE9F0E60CF71C081D191D1E
:100500009A01AB012A0D3B1D4C1D5D1D80E090E062
:10051000A0E0B0E0E614F7040805190520F481E036
:1005200090E0A0E0B0E0BA01A901480F591F6A1F8E
:100530007B1FAA0CBB1CCC1CDD1C97FE08C081E0F5
:1005400090E0A0E0B0E0A82AB92ACA2ADB2A3196B6
:10055000E032F10549F0660C771C881C991C569412
:10056000479437942794C3CFFA85EA892B893C892D
:100570008B859C85280F391F2E5F3F4F17C0CA01FE
:1005800081709070892B61F016950795F794E79428
:1005900080E090E0A0E0B0E8E82AF92A0A2B1B2BC3
:1005A00076956795579547952F5F3F4F77FDE7CF36
:1005B0000CC0440F551F661F771F17FD4160EE0CDE
:1005C000FF1C001F111F21503040403090E05907A0
:1005D00090E0690790E4790760F32B8F3C8FDB0193
:1005E000CA018F779070A070B07080349105A1051A
:1005F000B10561F447FD0AC0E114F10401051105DC
:1006000029F0405C5F4F6F4F7F4F40781A8EFE1786
:1006100011F081E08A8F4D8F5E8F6F8F78A383E01A
:10062000898FCE0149960E941105A096E2E10C94B3
:10063000A70BA8E1B0E0EFE1F3E00C94930B698322
:100640007A838B839C832D833E834F835887B9E0C5
:10065000EB2EF12CEC0EFD1ECE010196B7010E948F
:10066000E6058E010F5E1F4FCE010596B8010E9470
:10067000E6052985223008F47EC03989323010F42D
:10068000B8017CC08A859A8989278A87243011F02D
:10069000223031F4231709F06EC06DE770E06EC0B0
:1006A000343039F41D861E861F86188A1C861B86E8
:1006B00004C0323021F484E08987B7015FC02B8504
:1006C0003C858B899C89281B390B3C872B87ED84C3
:1006D000FE840F851889AD88BE88CF88D88CEA142F
:1006E000FB040C051D0540F4EE0CFF1C001F111F40
:1006F000215030403C872B8720E030E040E050E044
:1007000080E090E0A0E0B0E460E070E0EA14FB0478
:100710000C051D0540F0282B392B4A2B5B2BEA18C2
:10072000FB080C091D09B695A79597958795EE0CC2
:10073000FF1C001F111F6F5F7F4F6F31710531F775
:10074000DA01C9018F779070A070B0708034910584
:10075000A105B10561F427FD0AC0E114F10401050A
:10076000110529F0205C3F4F4F4F5F4F20782D87B8
:100770003E874F87588BBE01675F7F4FCB010E943A
:1007800011056896EAE00C94AF0BA8E1B0E0EBEC41
:10079000F3E00C94970B69837A838B839C832D837E
:1007A0003E834F83588789E0E82EF12CEC0EFD1E26
:1007B000CE010196B7010E94E6058E010F5E1F4F24
:1007C000CE010596B8010E94E6058985823040F089
:1007D0008989823028F0C701B8010E945E0601C0F5
:1007E0008FEF6896E6E00C94B30BACE0B0E0EBEF73
:1007F000F3E00C949B0B69837A838B839C83CE01FB
:100800000196BE016B5F7F4F0E94E6058D818230AD
:1008100061F1823050F1843021F48E81882351F1CE
:100820002EC02F81388537FD20C06E812F313105D4
:100830001CF06623F9F023C08EE190E0821B930B3D
:1008400029853A854B855C8504C056954795379533
:1008500027958A95D2F76623B1F05095409530954B
:1008600021953F4F4F4F5F4F0EC020E030E040E0FA
:1008700050E009C02FEF3FEF4FEF5FE704C020E0EB
:1008800030E040E050E8B901CA012C96E2E00C9457
:10089000B70BA8E0B0E0EFE4F4E00C94930B7B011D
:1008A0008C01611571058105910519F482E0898338
:1008B00060C083E089838EE1C82ED12CDC82CB829C
:1008C000ED82FE820F831887C801B7010E94C2041F
:1008D000FC013197F7FF3BC0222733272E1B3F0B2C
:1008E00057016801022E04C0D694C794B794A79408
:1008F0000A94D2F740E050E060E070E081E090E0E0
:10090000A0E0B0E004C0880F991FAA1FBB1F2A9562
:10091000D2F70197A109B1098E219F21A023B1230C
:100920000097A105B10521F041E050E060E070E0E2
:100930004A295B296C297D294D835E836F837887E3
:100940008EE190E08E1B9F0B9C838B8312C03097AF
:1009500081F00E2E04C0EE0CFF1C001F111F0A9424
:10096000D2F7ED82FE820F831887CE1ADF0ADC826F
:10097000CB821A82CE0101960E9411052896EAE0E8
:100980000C94AF0BEF92FF920F931F937B018C019E
:1009900080E0E81680E0F80681E0080780E01807AC
:1009A00088F48FEFE816F1040105110531F028F005
:1009B00088E090E0A0E0B0E017C080E090E0A0E028
:1009C000B0E012C080E0E81680E0F80680E008079A
:1009D00081E0180728F088E190E0A0E0B0E004C0D2
:1009E00080E190E0A0E0B0E020E230E040E050E0C4
:1009F000281B390B4A0B5B0B04C016950795F7941F
:100A0000E7948A95D2F7F701EB57FF4F8081281BB7
:100A1000310941095109C9011F910F91FF90EF90D0
:100A20000895DF92EF92FF920F931F93FC01E480F1
:100A3000F58006811781D1808081823048F480E082
:100A400090E0A0E1B0E0E82AF92A0A2B1B2BA5C010
:100A5000843009F49FC0823021F4EE24FF24870102
:100A600005C0E114F1040105110519F4E0E0F0E01E
:100A700096C0628173819FEF623879070CF05BC08A
:100A800022E83FEF261B370B2A3131052CF020E0FE
:100A900030E040E050E02AC0B801A701022E04C0B7
:100AA00076956795579547950A94D2F781E090E03F
:100AB000A0E0B0E004C0880F991FAA1FBB1F2A95B1
:100AC000D2F70197A109B1098E219F21A023B1235B
:100AD0000097A105B10521F081E090E0A0E0B0E031
:100AE0009A01AB01282B392B4A2B5B2BDA01C90168
:100AF0008F779070A070B07080349105A105B1051A
:100B000039F427FF09C0205C3F4F4F4F5F4F04C0AF
:100B1000215C3F4F4F4F5F4FE0E0F0E02030A0E01E
:100B20003A07A0E04A07A0E45A0710F0E1E0F0E03D
:100B300079018A0127C06038710564F5FB01E1582D
:100B4000FF4FD801C7018F779070A070B0708034CC
:100B50009105A105B10539F4E7FE0DC080E490E0F0
:100B6000A0E0B0E004C08FE390E0A0E0B0E0E80EC9
:100B7000F91E0A1F1B1F17FF05C016950795F7944E
:100B8000E794319687E016950795F794E7948A9550
:100B9000D1F705C0EE24FF248701EFEFF0E06E2FC0
:100BA000679566276795902F9F77D794DD24D79414
:100BB0008E2F8695492F462B582F5D29B701CA01E4
:100BC0001F910F91FF90EF90DF900895FC01DB01E2
:100BD000408151812281622F6F7770E0221F22278E
:100BE000221F9381892F880F822B282F30E0991F95
:100BF0009927991F11969C93119721153105A9F5F5
:100C0000411551056105710511F482E037C082E894
:100C10009FEF13969C938E9312979A01AB0167E016
:100C2000220F331F441F551F6A95D1F783E08C9321
:100C30000DC0220F331F441F551F12968D919C919A
:100C40001397019713969C938E931297203080E010
:100C5000380780E0480780E4580758F314962D932E
:100C60003D934D935C93179708952F3F310579F489
:100C7000411551056105710519F484E08C930895BF
:100C800064FF03C081E08C9312C01C9210C02F57E8
:100C9000304013963C932E93129783E08C9387E019
:100CA000440F551F661F771F8A95D1F770641496FD
:100CB0004D935D936D937C93179708951F93DC017B
:100CC000FB019C91923008F447C08081823008F487
:100CD00043C0943051F411961C91843099F5818170
:100CE000682F70E0611B71093FC0843021F09230A1
:100CF00031F48230B9F18181882389F12DC01196B8
:100D00001C9111978230F1F081811817D9F4129655
:100D10002D913C911397828193818217930794F0D0
:100D200028173907BCF014968D919D910D90BC91B8
:100D3000A02D2481358146815781281739074A071C
:100D40005B0718F4112341F00AC082179307A40728
:100D5000B50740F4112319F061E070E005C06FEFB2
:100D60007FEF02C060E070E0CB011F9108953E9AD2
:100D70003F983D98329A319A329A379A089597B1AE
:100D8000907E97B997B1982B97B9369A089524B168
:100D900035B1C9010895349BFECF349A24B135B1E1
:100DA000C9010895339A089533980895909387015F
:100DB0008093860108951F920F920FB60F9211240F
:100DC0002F933F934F935F936F937F938F939F9353
:100DD000AF93BF93EF93FF93E0918601F09187016A
:100DE0000995FF91EF91BF91AF919F918F917F9165
:100DF0006F915F914F913F912F910F900FBE0F9088
:100E00001F9018954423D1F58130A1F0813030F046
:100E10008230E1F0833009F067C024C02AB381E05A
:100E200090E002C0880F991F6A95E2F780958223AF
:100E30008ABB089527B381E090E002C0880F991F14
:100E40006A95E2F78095822387BB089524B381E0F9
:100E500090E002C0880F991F6A95E2F7809582237F
:100E600084BB089521B381E090E002C0880F991FF0
:100E70006A95E2F78095822381BB08954130A1F500
:100E8000813091F0813028F08230C9F0833061F5F3
:100E900021C02AB381E090E002C0880F991F6A95B3
:100EA000E2F7282B2ABB089527B381E090E002C027
:100EB000880F991F6A95E2F7282B27BB089524B362
:100EC00081E090E002C0880F991F6A95E2F7282B15
:100ED00024BB089521B381E090E002C0880F991FE0
:100EE0006A95E2F7282B21BB08954423D1F5813080
:100EF000A1F0813030F08230E1F0833009F067C03A
:100F000024C02BB381E090E002C0880F991F6A953E
:100F1000E2F7809582238BBB089528B381E090E0AF
:100F200002C0880F991F6A95E2F78095822388BBDB
:100F3000089525B381E090E002C0880F991F6A955B
:100F4000E2F78095822385BB089522B381E090E08B
:100F500002C0880F991F6A95E2F78095822382BBB1
:100F600008954130A1F5813091F0813028F0823030
:100F7000C9F0833061F521C02BB381E090E002C05D
:100F8000880F991F6A95E2F7282B2BBB089528B389
:100F900081E090E002C0880F991F6A95E2F7282B44
:100FA00028BB089525B381E090E002C0880F991F07
:100FB0006A95E2F7282B25BB089522B381E090E0E3
:100FC00002C0880F991F6A95E2F7282B22BB08956B
:100FD000FA01813049F0813028F0823039F08330D5
:100FE000C1F40EC089B303C086B301C083B390E0DF
:100FF00002C0959587956A95E2F781708083089580
:1010000080B390E002C0959587956A95E2F781706C
:10101000808308956130A9F4813051F0813028F047
:10102000823049F08330F9F409C08FEF8ABB08950C
:101030008FEF87BB08958FEF84BB08958FEF81BB3F
:101040000895662381F4813049F0813028F08230A0
:1010500039F0833041F406C01ABA089517BA0895DA
:1010600014BA089511BA0895813049F0813028F0FA
:10107000823039F0833041F406C06BBB089568BB01
:10108000089565BB089562BB0895FB01813049F066
:10109000813028F0823039F0833051F407C089B3B1
:1010A00003C086B301C083B38083089580B3808377
:1010B00008958FB780688FBF08958FB78F778FBFE0
:1010C00008951F93182F80E067E041E00E947507A4
:1010D00082E0612F0E94340880E066E041E00E94D7
:1010E000750784EF91E00197F1F780E066E040E05A
:1010F0000E9475071F9108951F93182F80E067E0E5
:1011000040E00E94750782E0612F0E94340880E071
:1011100066E041E00E94750784EF91E00197F1F7E6
:1011200080E066E040E00E9475071F9108958823E3
:1011300019F0813039F403C0862F805804C0862FFF
:10114000805401C080E80E947C0808951F93CF93CB
:10115000DF93EC0110E00EC0103120F40E94610812
:101160001F5F07C080EC0E947C0888810E94610894
:1011700010E021968881882379F7DF91CF911F9124
:1011800008950F931F93DF93CF93CDB7DEB72A97C0
:101190000FB6F894DEBF0FBECDBF8E010F5F1F4F9D
:1011A000B8014AE050E00E94C20BC8010E94A608A4
:1011B0002A960FB6F894DEBF0FBECDBFCF91DF9158
:1011C0001F910F9108950F931F938A010E94970812
:1011D000C8010E94A6081F910F91089582E061E066
:1011E0000E940A0880E067E041E00E94020780E078
:1011F00066E041E00E94020780E197E20197F1F783
:1012000088E30E947C088CE00E947C0881E00E94B8
:101210007C08089581E060E040E00E94750781E06D
:1012200061E040E00E94750781E062E040E00E94DA
:10123000750708950F931F938C0181E00E94BF06EC
:101240000E94CB06F801918380831F910F9108952E
:10125000DF93CF9300D0CDB7DEB7CE0101960E94C9
:101260001A0929813A81C901835A9340843591052D
:1012700070F481E060E041E00E94750781E061E088
:1012800041E00E94750781E062E041E029C0C901A8
:10129000805092408655914048F481E060E041E002
:1012A0000E94750781E061E041E015C0C9018D55DC
:1012B0009040893F910520F481E060E041E006C064
:1012C0002133310579F481E060E040E00E94750748
:1012D00081E061E040E00E94750781E062E040E06B
:1012E0000E9475070F900F90CF91DF91089581E0D4
:1012F00060E041E00E94020781E061E041E00E947D
:10130000020781E062E041E00E9402070895DF9356
:10131000CF9300D00F92CDB7DEB70E940A0983E0C9
:1013200065E040E00E94020783E066E040E00E9442
:10133000020783E067E040E00E94020783E065E087
:10134000AE014F5F5F4F0E94E80783E066E0AE01A9
:101350004E5F5F4F0E94E80783E067E0AE014D5F9C
:101360005F4F0E94E80783E065E041E00E94750757
:1013700083E066E041E00E94750783E067E041E0BA
:101380000E9475070E94770940E08981882309F44B
:1013900041E081E060E00E94750740E08A81882397
:1013A00009F441E081E061E00E94750740E08B8133
:1013B000882309F441E081E062E00E9475070F9004
:1013C0000F900F90CF91DF9108950F931F938C0191
:1013D00080E00E94BF060E94CB06A0E0B0E0BC0106
:1013E000CD010E94490426EF38E24CE950E40E9406
:1013F0001F0220E030E040E251E40E9419030E9405
:101400004900F801718360831F910F910895DF9364
:10141000CF9300D0CDB7DEB7CE0101960E94E5098B
:1014200081E090E00E947C0880E690E00E94A6089F
:1014300089819A810E94C10884E294EF0197F1F7B3
:101440000F900F90CF91DF91089581E064E041E02B
:101450000E94750781E065E041E00E9475070895EC
:1014600080E00E944A0B08958FEF0E944A0B089576
:101470008FE70E944A0B0895DF93CF9300D0CDB73A
:10148000DEB781E064E040E00E94020781E065E0B1
:1014900040E00E94020781E064E041E00E9475079D
:1014A00081E065E041E00E94750781E064E0AE0103
:1014B0004F5F5F4F0E94E80781E065E0AE014E5F3D
:1014C0005F4F0E94E8079981992329F48A8181302E
:1014D00011F48FE711C08A81882321F4913011F42F
:1014E0008FEF0AC0992319F4882329F007C091309F
:1014F00029F4813019F480E00E944A0B0F900F907C
:10150000CF91DF910895DF93CF9300D0CDB7DEB7B1
:101510000E94250ACE0101960E94E50929813A819F
:101520002E31310510F480E00AC0C9014E970F97A3
:1015300010F48FE704C02D32310518F08FEF0E94B0
:101540004A0B0F900F90CF91DF91089581E063E0F7
:1015500041E00E94020783E060E040E00E94020751
:1015600083E061E040E00E94020783E060E041E048
:101570000E94750783E061E041E00E94750783E007
:1015800062E00E94260B81E00E944C0B0895359A80
:1015900080B78F7180BF0E94D2060E9459080895BB
:1015A00086E880BD83E389B9539A549A08955D9B78
:1015B000FECF8CB908955F9BFECF8CB10895EF925A
:1015C000FF920F931F93DF93CF930F92CDB7DEB7A8
:1015D0000E94D00A0E94B7060E94EE080E94A60A46
:1015E0000E94770983E062E040E00E94020783E006
:1015F00062E041E00E9475077E010894E11CF11C45
:1016000004E214EF0E94DB0A8130E1F783E062E03C
:10161000A7010E94E8078981813049F40E94830A6A
:101620000E94070A0E9477090E942809EBCF81E0F7
:101630000E947C088DE690E00E94A608C8010197F0
:10164000F1F70E943C0A0E948709DCCF823051F0FA
:10165000833059F0882379F483B78F7B83BF83B7B6
:10166000877F08C083B78F7B02C083B7806483BF46
:1016700083B7886083BF83B7887F83BF83B7862B98
:1016800083BF089589B7816089BF089589B78E7F28
:1016900089BF08958CBF0895882319F0813071F4B3
:1016A00007C083B7806283BF83B7806183BF08951B
:1016B00083B7806283BF83B78F7E83BF0895909383
:1016C00089018093880108951F920F920FB60F929F
:1016D00011242F933F934F935F936F937F938F9337
:1016E0009F93AF93BF93EF93FF93E0918801F091A5
:1016F00089010995FF91EF91BF91AF919F918F91D2
:101700007F916F915F914F913F912F910F900FBEFD
:101710000F901F9018952F923F924F925F926F9269
:101720007F928F929F92AF92BF92CF92DF92EF9271
:10173000FF920F931F93CF93DF93CDB7DEB7CA1BF2
:10174000DB0B0FB6F894DEBF0FBECDBF09942A881D
:10175000398848885F846E847D848C849B84AA84C5
:10176000B984C884DF80EE80FD800C811B81AA8152
:10177000B981CE0FD11D0FB6F894DEBF0FBECDBF1D
:10178000ED010895FB019F01E8944230C4F0453219
:10179000B4F44A3029F497FB1EF4909581959F4F3D
:1017A000642F77270E94F30B805D8A330CF0895DEC
:1017B0008193CB010097A1F716F45DE2519310825B
:1017C000C9010C94E30BDC01FC01672F71917723B5
:1017D000E1F7329704C07C916D9370836291AE17EC
:1017E000BF07C8F30895AA1BBB1B51E107C0AA1F7E
:1017F000BB1FA617B70710F0A61BB70B881F991FB2
:101800005A95A9F780959095BC01CD010895F8945B
:02181000FFCF08
:1018120054656D70657261747572653D004D616EDF
:1018220075616C204D6F6465204F4E2100000000F1
:101832000000000000000102020303030304040489
:10184200040404040405050505050505050505054B
:10185200050505050506060606060606060606062B
:101862000606060606060606060606060606060616
:1018720006060606060707070707070707070707FB
:1018820007070707070707070707070707070707E6
:1018920007070707070707070707070707070707D6
:1018A20007070707070707070707070707070707C6
:1018B20007070707070808080808080808080808AB
:1018C2000808080808080808080808080808080896
:1018D2000808080808080808080808080808080886
:1018E2000808080808080808080808080808080876
:1018F2000808080808080808080808080808080866
:101902000808080808080808080808080808080855
:101912000808080808080808080808080808080845
:101922000808080808080808080808080808080835
:0619320008080808080087
:00000001FF
